{
  "contractName": "Contract",
  "abi": [
    {
      "inputs": [
        {
          "internalType": "bytes",
          "name": "identifier",
          "type": "bytes"
        },
        {
          "internalType": "address[]",
          "name": "parties",
          "type": "address[]"
        },
        {
          "internalType": "contract NFToken",
          "name": "nfToken",
          "type": "address"
        },
        {
          "internalType": "uint256[]",
          "name": "deonticExpressionsIds",
          "type": "uint256[]"
        },
        {
          "internalType": "uint256[]",
          "name": "objects",
          "type": "uint256[]"
        },
        {
          "internalType": "address[]",
          "name": "relatedContracts",
          "type": "address[]"
        },
        {
          "internalType": "uint256[]",
          "name": "relations",
          "type": "uint256[]"
        },
        {
          "internalType": "address[]",
          "name": "incomeBeneficiaries",
          "type": "address[]"
        },
        {
          "internalType": "uint256[]",
          "name": "incomePercentages",
          "type": "uint256[]"
        },
        {
          "internalType": "string",
          "name": "contentUri",
          "type": "string"
        },
        {
          "internalType": "bytes",
          "name": "contentHash",
          "type": "bytes"
        }
      ],
      "stateMutability": "nonpayable",
      "type": "constructor"
    },
    {
      "inputs": [],
      "name": "_contentHash",
      "outputs": [
        {
          "internalType": "bytes",
          "name": "",
          "type": "bytes"
        }
      ],
      "stateMutability": "view",
      "type": "function"
    },
    {
      "inputs": [],
      "name": "_contentUri",
      "outputs": [
        {
          "internalType": "string",
          "name": "",
          "type": "string"
        }
      ],
      "stateMutability": "view",
      "type": "function"
    },
    {
      "inputs": [],
      "name": "_nfToken",
      "outputs": [
        {
          "internalType": "contract NFToken",
          "name": "",
          "type": "address"
        }
      ],
      "stateMutability": "view",
      "type": "function"
    },
    {
      "inputs": [
        {
          "internalType": "address payable",
          "name": "beneficiary",
          "type": "address"
        },
        {
          "internalType": "uint256",
          "name": "amount",
          "type": "uint256"
        }
      ],
      "name": "payTo",
      "outputs": [],
      "stateMutability": "payable",
      "type": "function"
    },
    {
      "inputs": [],
      "name": "getParties",
      "outputs": [
        {
          "internalType": "address[]",
          "name": "",
          "type": "address[]"
        }
      ],
      "stateMutability": "view",
      "type": "function"
    },
    {
      "inputs": [],
      "name": "getDeonticExpressions",
      "outputs": [
        {
          "internalType": "uint256[]",
          "name": "",
          "type": "uint256[]"
        }
      ],
      "stateMutability": "view",
      "type": "function"
    },
    {
      "inputs": [],
      "name": "getObjects",
      "outputs": [
        {
          "internalType": "uint256[]",
          "name": "",
          "type": "uint256[]"
        }
      ],
      "stateMutability": "view",
      "type": "function"
    },
    {
      "inputs": [],
      "name": "getContractRelations",
      "outputs": [
        {
          "internalType": "address[]",
          "name": "",
          "type": "address[]"
        },
        {
          "internalType": "uint256[]",
          "name": "",
          "type": "uint256[]"
        }
      ],
      "stateMutability": "view",
      "type": "function"
    },
    {
      "inputs": [
        {
          "internalType": "address",
          "name": "sharer",
          "type": "address"
        }
      ],
      "name": "getIncomePercentagesBy",
      "outputs": [
        {
          "internalType": "address[]",
          "name": "",
          "type": "address[]"
        },
        {
          "internalType": "uint256[]",
          "name": "",
          "type": "uint256[]"
        }
      ],
      "stateMutability": "view",
      "type": "function"
    }
  ],
  "bytecode": "0x60806040523480156200001157600080fd5b50604051620015a1380380620015a18339810160408190526200003491620006b2565b8a51620000499060009060208e019062000489565b5060005b8a51811015620000b0576200009a8b82815181106200007c57634e487b7160e01b600052603260045260246000fd5b60200260200101516001620003a760201b620005b71790919060201c565b5080620000a78162000938565b9150506200004d565b50600380546001600160a01b0319166001600160a01b038b1617905560005b885181101562000132576200011c898281518110620000fe57634e487b7160e01b600052603260045260246000fd5b60200260200101516004620003c760201b620005d51790919060201c565b5080620001298162000938565b915050620000cf565b5060005b87518110156200019957620001838882815181106200016557634e487b7160e01b600052603260045260246000fd5b60200260200101516006620003c760201b620005d51790919060201c565b5080620001908162000938565b91505062000136565b5060005b86518110156200022a5762000214878281518110620001cc57634e487b7160e01b600052603260045260246000fd5b6020026020010151878381518110620001f557634e487b7160e01b600052603260045260246000fd5b60200260200101516008620003d560201b620005e1179092919060201c565b5080620002218162000938565b9150506200019d565b5060005b835181101562000369576000600b60008784815181106200025f57634e487b7160e01b600052603260045260246000fd5b60200260200101516001600160a01b03166001600160a01b0316815260200190815260200160002090506000858380620002999062000938565b945081518110620002ba57634e487b7160e01b600052603260045260246000fd5b6020026020010151905060005b8181101562000360576200034a888581518110620002f557634e487b7160e01b600052603260045260246000fd5b60200260200101518886806200030b9062000938565b9750815181106200032c57634e487b7160e01b600052603260045260246000fd5b602002602001015185620003d560201b620005e1179092919060201c565b5080620003578162000938565b915050620002c7565b5050506200022e565b5081516200037f90600c90602085019062000489565b5080516200039590600d90602084019062000489565b5050505050505050505050506200098f565b6000620003be836001600160a01b038416620003f5565b90505b92915050565b6000620003be8383620003f5565b6000620003ed846001600160a01b0385168462000444565b949350505050565b600062000403838362000471565b6200043b57508154600181810184556000848152602080822090930184905584548482528286019093526040902091909155620003c1565b506000620003c1565b600082815260028401602090815260408220839055620003ed9085908590620005d5620003c7821b17901c565b60009081526001919091016020526040902054151590565b8280546200049790620008fb565b90600052602060002090601f016020900481019282620004bb576000855562000506565b82601f10620004d657805160ff191683800117855562000506565b8280016001018555821562000506579182015b8281111562000506578251825591602001919060010190620004e9565b506200051492915062000518565b5090565b5b8082111562000514576000815560010162000519565b600082601f83011262000540578081fd5b81516020620005596200055383620008d5565b620008a9565b828152818101908583018385028701840188101562000576578586fd5b855b85811015620005a15781516200058e8162000976565b8452928401929084019060010162000578565b5090979650505050505050565b600082601f830112620005bf578081fd5b81516020620005d26200055383620008d5565b8281528181019085830183850287018401881015620005ef578586fd5b855b85811015620005a157815184529284019290840190600101620005f1565b600082601f83011262000620578081fd5b81516001600160401b038111156200063c576200063c62000960565b602062000652601f8301601f19168201620008a9565b828152858284870101111562000666578384fd5b835b838110156200068557858101830151828201840152820162000668565b838111156200069657848385840101525b5095945050505050565b8051620006ad8162000976565b919050565b60008060008060008060008060008060006101608c8e031215620006d4578687fd5b8b516001600160401b03811115620006ea578788fd5b620006f88e828f016200060f565b60208e0151909c5090506001600160401b0381111562000716578788fd5b620007248e828f016200052f565b9a50506200073560408d01620006a0565b60608d01519099506001600160401b0381111562000751578788fd5b6200075f8e828f01620005ae565b60808e015190995090506001600160401b038111156200077d578788fd5b6200078b8e828f01620005ae565b60a08e015190985090506001600160401b03811115620007a9578687fd5b620007b78e828f016200052f565b60c08e015190975090506001600160401b03811115620007d5578586fd5b620007e38e828f01620005ae565b60e08e015190965090506001600160401b0381111562000801578485fd5b6200080f8e828f016200052f565b6101008e015190955090506001600160401b038111156200082e578384fd5b6200083c8e828f01620005ae565b6101208e015190945090506001600160401b038111156200085b578283fd5b620008698e828f016200060f565b6101408e015190935090506001600160401b0381111562000888578182fd5b620008968e828f016200060f565b9150509295989b509295989b9093969950565b6040518181016001600160401b0381118282101715620008cd57620008cd62000960565b604052919050565b60006001600160401b03821115620008f157620008f162000960565b5060209081020190565b6002810460018216806200091057607f821691505b602082108114156200093257634e487b7160e01b600052602260045260246000fd5b50919050565b60006000198214156200095957634e487b7160e01b81526011600452602481fd5b5060010190565b634e487b7160e01b600052604160045260246000fd5b6001600160a01b03811681146200098c57600080fd5b50565b610c02806200099f6000396000f3fe6080604052600436106100865760003560e01c80636090e09e116100595780636090e09e1461011b5780636905a431146101305780637bf086211461014557806398f960721461015a578063a8311aa81461017c57610086565b80631665ff7c1461008b57806318a02891146100b65780631fec4699146100d8578063441b525114610106575b600080fd5b34801561009757600080fd5b506100a061019e565b6040516100ad9190610a53565b60405180910390f35b3480156100c257600080fd5b506100cb610260565b6040516100ad9190610a66565b3480156100e457600080fd5b506100f86100f3366004610907565b6102ee565b6040516100ad929190610a25565b34801561011257600080fd5b506100a061031d565b34801561012757600080fd5b506100cb6103d9565b34801561013c57600080fd5b506100f86103e6565b61015861015336600461092a565b6103fb565b005b34801561016657600080fd5b5061016f6104df565b6040516100ad9190610a79565b34801561018857600080fd5b506101916104ee565b6040516100ad9190610a12565b606060006101ac60066105ff565b67ffffffffffffffff8111156101d257634e487b7160e01b600052604160045260246000fd5b6040519080825280602002602001820160405280156101fb578160200160208202803683370190505b50905060005b61020b60066105ff565b81101561025a5761021d60068261060a565b82828151811061023d57634e487b7160e01b600052603260045260246000fd5b60209081029190910101528061025281610b83565b915050610201565b50905090565b600d805461026d90610b48565b80601f016020809104026020016040519081016040528092919081815260200182805461029990610b48565b80156102e65780601f106102bb576101008083540402835291602001916102e6565b820191906000526020600020905b8154815290600101906020018083116102c957829003601f168201915b505050505081565b6001600160a01b0381166000908152600b60205260409020606090819061031490610616565b91509150915091565b6060600061032b60046105ff565b67ffffffffffffffff81111561035157634e487b7160e01b600052604160045260246000fd5b60405190808252806020026020018201604052801561037a578160200160208202803683370190505b50905060005b61038a60046105ff565b81101561025a5761039c60048261060a565b8282815181106103bc57634e487b7160e01b600052603260045260246000fd5b6020908102919091010152806103d181610b83565b915050610380565b600c805461026d90610b48565b6060806103f36008610616565b915091509091565b6001600160a01b0382166000908152600b6020526040812082919061041f906107aa565b905080156104a25760005b818110156104a0576001600160a01b0385166000908152600b60205260408120819061045690846107b5565b90925090506000610472606461046c89856107d1565b906107dd565b905061047e83826103fb565b61048886826107e9565b9550505050808061049890610b83565b91505061042a565b505b6040516001600160a01b0385169083156108fc029084906000818181858888f193505050501580156104d8573d6000803e3d6000fd5b5050505050565b6003546001600160a01b031681565b606060006104fc60016105ff565b67ffffffffffffffff81111561052257634e487b7160e01b600052604160045260246000fd5b60405190808252806020026020018201604052801561054b578160200160208202803683370190505b50905060005b61055b60016105ff565b81101561025a5761056d60018261060a565b82828151811061058d57634e487b7160e01b600052603260045260246000fd5b6001600160a01b0390921660209283029190910190910152806105af81610b83565b915050610551565b60006105cc836001600160a01b0384166107f5565b90505b92915050565b60006105cc83836107f5565b60006105f7846001600160a01b0385168461083f565b949350505050565b60006105cf8261085c565b60006105cc8383610860565b6060806000610624846108b9565b90506000811161064f5760405162461bcd60e51b815260040161064690610acf565b60405180910390fd5b60008167ffffffffffffffff81111561067857634e487b7160e01b600052604160045260246000fd5b6040519080825280602002602001820160405280156106a1578160200160208202803683370190505b50905060008267ffffffffffffffff8111156106cd57634e487b7160e01b600052604160045260246000fd5b6040519080825280602002602001820160405280156106f6578160200160208202803683370190505b50905060005b8381101561079e5760008061071189846108c4565b915091508160001c85848151811061073957634e487b7160e01b600052603260045260246000fd5b60200260200101906001600160a01b031690816001600160a01b0316815250508060001c84848151811061077d57634e487b7160e01b600052603260045260246000fd5b6020026020010181815250505050808061079690610b83565b9150506106fc565b50909350915050915091565b60006105cf826108b9565b60008080806107c486866108c4565b9097909650945050505050565b60006105cc8284610b12565b60006105cc8284610af2565b60006105cc8284610b31565b600061080183836108ef565b610837575081546001818101845560008481526020808220909301849055845484825282860190935260409020919091556105cf565b5060006105cf565b600082815260028401602052604081208290556105f784846105d5565b5490565b815460009082106108835760405162461bcd60e51b815260040161064690610a8d565b8260000182815481106108a657634e487b7160e01b600052603260045260246000fd5b9060005260206000200154905092915050565b60006105cf826105ff565b600080806108d2858561060a565b600081815260029690960160205260409095205494959350505050565b60009081526001919091016020526040902054151590565b600060208284031215610918578081fd5b813561092381610bb4565b9392505050565b6000806040838503121561093c578081fd5b823561094781610bb4565b946020939093013593505050565b6000815180845260208085019450808401835b8381101561098d5781516001600160a01b031687529582019590820190600101610968565b509495945050505050565b6000815180845260208085019450808401835b8381101561098d578151875295820195908201906001016109ab565b60008151808452815b818110156109ec576020818501810151868301820152016109d0565b818111156109fd5782602083870101525b50601f01601f19169290920160200192915050565b6000602082526105cc6020830184610955565b600060408252610a386040830185610955565b8281036020840152610a4a8185610998565b95945050505050565b6000602082526105cc6020830184610998565b6000602082526105cc60208301846109c7565b6001600160a01b0391909116815260200190565b60208082526022908201527f456e756d657261626c655365743a20696e646578206f7574206f6620626f756e604082015261647360f01b606082015260800190565b6020808252600990820152680456d707479204d61760bc1b604082015260600190565b600082610b0d57634e487b7160e01b81526012600452602481fd5b500490565b6000816000190483118215151615610b2c57610b2c610b9e565b500290565b600082821015610b4357610b43610b9e565b500390565b600281046001821680610b5c57607f821691505b60208210811415610b7d57634e487b7160e01b600052602260045260246000fd5b50919050565b6000600019821415610b9757610b97610b9e565b5060010190565b634e487b7160e01b600052601160045260246000fd5b6001600160a01b0381168114610bc957600080fd5b5056fea2646970667358221220d75fb89b6c4d37a7d05bfc0454b4b0fcc85306f1de7eb99a3fdb56e4d7e1ec2364736f6c63430008000033",
  "immutableReferences": {},
  "source": "// SPDX-License-Identifier: MIT\npragma solidity ^0.8.0;\n\nimport \"./NFToken.sol\";\nimport \"./EnumerableMapAddressToUint.sol\";\nimport \"@openzeppelin/contracts/utils/math/SafeMath.sol\";\n\n//import \"@openzeppelin/contracts/utils/structs/EnumerableSet.sol\";\n\ncontract Contract {\n    using SafeMath for uint256;\n    using EnumerableSet for EnumerableSet.AddressSet;\n    using EnumerableSet for EnumerableSet.UintSet;\n    using EnumerableMap for EnumerableMap.AddressToUintMap;\n\n    // Contract unique identifier\n    bytes private _identifier;\n    // Contract parties address\n    EnumerableSet.AddressSet _parties;\n    // Contract deontic expression NFtoken\n    NFToken public _nfToken;\n    // Contract deontic expressions token id\n    EnumerableSet.UintSet _deonticExpressions;\n    // Contract objects token id\n    EnumerableSet.UintSet _objects;\n    // Contract relations with other contracts\n    EnumerableMap.AddressToUintMap _contractRelations;\n    // Contract related income percentages for payments\n    mapping(address => EnumerableMap.AddressToUintMap) _incomePercentages;\n    // Contract content URI\n    string public _contentUri;\n    // Contract content HASH\n    bytes public _contentHash;\n\n    constructor(\n        bytes memory identifier,\n        address[] memory parties,\n        NFToken nfToken,\n        uint256[] memory deonticExpressionsIds,\n        uint256[] memory objects,\n        address[] memory relatedContracts,\n        uint256[] memory relations,\n        address[] memory incomeBeneficiaries,\n        uint256[] memory incomePercentages,\n        string memory contentUri,\n        bytes memory contentHash\n    ) {\n        _identifier = identifier;\n        for (uint256 i = 0; i < parties.length; i++) {\n            _parties.add(parties[i]);\n        }\n        _nfToken = nfToken;\n        for (uint256 i = 0; i < deonticExpressionsIds.length; i++) {\n            _deonticExpressions.add(deonticExpressionsIds[i]);\n        }\n        for (uint256 i = 0; i < objects.length; i++) {\n            _objects.add(objects[i]);\n        }\n        for (uint256 i = 0; i < relatedContracts.length; i++) {\n            _contractRelations.set(relatedContracts[i], relations[i]);\n        }\n        for (uint256 i = 0; i < incomePercentages.length; ) {\n            EnumerableMap.AddressToUintMap storage incomeMap =\n                _incomePercentages[incomeBeneficiaries[i]];\n            uint256 shares = incomePercentages[i++];\n            for (uint256 j = 0; j < shares; j++) {\n                incomeMap.set(incomeBeneficiaries[i], incomePercentages[i++]);\n            }\n        }\n        _contentUri = contentUri;\n        _contentHash = contentHash;\n    }\n\n    function payTo(address payable beneficiary, uint256 amount) public payable {\n        uint256 finalAmount = amount;\n        uint256 l = _incomePercentages[beneficiary].length();\n        if (l != 0) {\n            for (uint256 i = 0; i < l; i++) {\n                (address incomeBeneficiary, uint256 incomePercentage) =\n                    _incomePercentages[beneficiary].at(i);\n                uint256 subAmount = amount.mul(incomePercentage).div(100);\n                payTo(payable(incomeBeneficiary), subAmount);\n                finalAmount = finalAmount.sub(subAmount);\n            }\n        }\n        beneficiary.transfer(finalAmount);\n    }\n\n    function getParties() public view returns (address[] memory) {\n        address[] memory parties = new address[](_parties.length());\n        for (uint256 i = 0; i < _parties.length(); i++) {\n            parties[i] = _parties.at(i);\n        }\n\n        return parties;\n    }\n\n    function getDeonticExpressions() public view returns (uint256[] memory) {\n        uint256[] memory deontics = new uint256[](_deonticExpressions.length());\n        for (uint256 i = 0; i < _deonticExpressions.length(); i++) {\n            deontics[i] = _deonticExpressions.at(i);\n        }\n\n        return deontics;\n    }\n\n    function getObjects() public view returns (uint256[] memory) {\n        uint256[] memory objects = new uint256[](_objects.length());\n        for (uint256 i = 0; i < _objects.length(); i++) {\n            objects[i] = _objects.at(i);\n        }\n\n        return objects;\n    }\n\n    function getContractRelations()\n        public\n        view\n        returns (address[] memory, uint256[] memory)\n    {\n        return _contractRelations.getAll();\n    }\n\n    function getIncomePercentagesBy(address sharer)\n        public\n        view\n        returns (address[] memory, uint256[] memory)\n    {\n        return _incomePercentages[sharer].getAll();\n    }\n}\n",
  "sourcePath": "/home/irzhy/www/ela.city/dlt-scm/contracts/Contract.sol",
  "compiler": {
    "name": "solc",
    "version": "0.8.0+commit.c7dfd78e.Emscripten.clang"
  },
  "schemaVersion": "3.4.3",
  "updatedAt": "2022-08-17T21:18:33.843Z",
  "devdoc": {
    "kind": "dev",
    "methods": {},
    "version": 1
  },
  "userdoc": {
    "kind": "user",
    "methods": {},
    "version": 1
  }
}