{
  "contractName": "MediaToken",
  "abi": [
    {
      "inputs": [
        {
          "internalType": "string",
          "name": "name",
          "type": "string"
        },
        {
          "internalType": "string",
          "name": "symbol",
          "type": "string"
        }
      ],
      "stateMutability": "nonpayable",
      "type": "constructor"
    },
    {
      "anonymous": false,
      "inputs": [
        {
          "indexed": true,
          "internalType": "address",
          "name": "owner",
          "type": "address"
        },
        {
          "indexed": true,
          "internalType": "address",
          "name": "approved",
          "type": "address"
        },
        {
          "indexed": true,
          "internalType": "uint256",
          "name": "tokenId",
          "type": "uint256"
        }
      ],
      "name": "Approval",
      "type": "event"
    },
    {
      "anonymous": false,
      "inputs": [
        {
          "indexed": true,
          "internalType": "address",
          "name": "owner",
          "type": "address"
        },
        {
          "indexed": true,
          "internalType": "address",
          "name": "operator",
          "type": "address"
        },
        {
          "indexed": false,
          "internalType": "bool",
          "name": "approved",
          "type": "bool"
        }
      ],
      "name": "ApprovalForAll",
      "type": "event"
    },
    {
      "anonymous": false,
      "inputs": [
        {
          "indexed": true,
          "internalType": "address",
          "name": "from",
          "type": "address"
        },
        {
          "indexed": true,
          "internalType": "address",
          "name": "to",
          "type": "address"
        },
        {
          "indexed": true,
          "internalType": "uint256",
          "name": "tokenId",
          "type": "uint256"
        }
      ],
      "name": "Transfer",
      "type": "event"
    },
    {
      "inputs": [
        {
          "internalType": "address",
          "name": "to",
          "type": "address"
        },
        {
          "internalType": "uint256",
          "name": "tokenId",
          "type": "uint256"
        }
      ],
      "name": "approve",
      "outputs": [],
      "stateMutability": "nonpayable",
      "type": "function"
    },
    {
      "inputs": [
        {
          "internalType": "address",
          "name": "owner",
          "type": "address"
        }
      ],
      "name": "balanceOf",
      "outputs": [
        {
          "internalType": "uint256",
          "name": "",
          "type": "uint256"
        }
      ],
      "stateMutability": "view",
      "type": "function",
      "constant": true
    },
    {
      "inputs": [
        {
          "internalType": "uint256",
          "name": "tokenId",
          "type": "uint256"
        }
      ],
      "name": "getApproved",
      "outputs": [
        {
          "internalType": "address",
          "name": "",
          "type": "address"
        }
      ],
      "stateMutability": "view",
      "type": "function",
      "constant": true
    },
    {
      "inputs": [
        {
          "internalType": "address",
          "name": "owner",
          "type": "address"
        },
        {
          "internalType": "address",
          "name": "operator",
          "type": "address"
        }
      ],
      "name": "isApprovedForAll",
      "outputs": [
        {
          "internalType": "bool",
          "name": "",
          "type": "bool"
        }
      ],
      "stateMutability": "view",
      "type": "function",
      "constant": true
    },
    {
      "inputs": [],
      "name": "name",
      "outputs": [
        {
          "internalType": "string",
          "name": "",
          "type": "string"
        }
      ],
      "stateMutability": "view",
      "type": "function",
      "constant": true
    },
    {
      "inputs": [
        {
          "internalType": "uint256",
          "name": "tokenId",
          "type": "uint256"
        }
      ],
      "name": "ownerOf",
      "outputs": [
        {
          "internalType": "address",
          "name": "",
          "type": "address"
        }
      ],
      "stateMutability": "view",
      "type": "function",
      "constant": true
    },
    {
      "inputs": [
        {
          "internalType": "address",
          "name": "from",
          "type": "address"
        },
        {
          "internalType": "address",
          "name": "to",
          "type": "address"
        },
        {
          "internalType": "uint256",
          "name": "tokenId",
          "type": "uint256"
        }
      ],
      "name": "safeTransferFrom",
      "outputs": [],
      "stateMutability": "nonpayable",
      "type": "function"
    },
    {
      "inputs": [
        {
          "internalType": "address",
          "name": "from",
          "type": "address"
        },
        {
          "internalType": "address",
          "name": "to",
          "type": "address"
        },
        {
          "internalType": "uint256",
          "name": "tokenId",
          "type": "uint256"
        },
        {
          "internalType": "bytes",
          "name": "_data",
          "type": "bytes"
        }
      ],
      "name": "safeTransferFrom",
      "outputs": [],
      "stateMutability": "nonpayable",
      "type": "function"
    },
    {
      "inputs": [
        {
          "internalType": "address",
          "name": "operator",
          "type": "address"
        },
        {
          "internalType": "bool",
          "name": "approved",
          "type": "bool"
        }
      ],
      "name": "setApprovalForAll",
      "outputs": [],
      "stateMutability": "nonpayable",
      "type": "function"
    },
    {
      "inputs": [
        {
          "internalType": "bytes4",
          "name": "interfaceId",
          "type": "bytes4"
        }
      ],
      "name": "supportsInterface",
      "outputs": [
        {
          "internalType": "bool",
          "name": "",
          "type": "bool"
        }
      ],
      "stateMutability": "view",
      "type": "function",
      "constant": true
    },
    {
      "inputs": [],
      "name": "symbol",
      "outputs": [
        {
          "internalType": "string",
          "name": "",
          "type": "string"
        }
      ],
      "stateMutability": "view",
      "type": "function",
      "constant": true
    },
    {
      "inputs": [
        {
          "internalType": "uint256",
          "name": "index",
          "type": "uint256"
        }
      ],
      "name": "tokenByIndex",
      "outputs": [
        {
          "internalType": "uint256",
          "name": "",
          "type": "uint256"
        }
      ],
      "stateMutability": "view",
      "type": "function",
      "constant": true
    },
    {
      "inputs": [
        {
          "internalType": "address",
          "name": "owner",
          "type": "address"
        },
        {
          "internalType": "uint256",
          "name": "index",
          "type": "uint256"
        }
      ],
      "name": "tokenOfOwnerByIndex",
      "outputs": [
        {
          "internalType": "uint256",
          "name": "",
          "type": "uint256"
        }
      ],
      "stateMutability": "view",
      "type": "function",
      "constant": true
    },
    {
      "inputs": [],
      "name": "totalSupply",
      "outputs": [
        {
          "internalType": "uint256",
          "name": "",
          "type": "uint256"
        }
      ],
      "stateMutability": "view",
      "type": "function",
      "constant": true
    },
    {
      "inputs": [
        {
          "internalType": "address",
          "name": "from",
          "type": "address"
        },
        {
          "internalType": "address",
          "name": "to",
          "type": "address"
        },
        {
          "internalType": "uint256",
          "name": "tokenId",
          "type": "uint256"
        }
      ],
      "name": "transferFrom",
      "outputs": [],
      "stateMutability": "nonpayable",
      "type": "function"
    },
    {
      "inputs": [
        {
          "internalType": "address",
          "name": "receiver",
          "type": "address"
        },
        {
          "internalType": "string",
          "name": "_tokenURI",
          "type": "string"
        }
      ],
      "name": "mint",
      "outputs": [
        {
          "internalType": "uint256",
          "name": "",
          "type": "uint256"
        }
      ],
      "stateMutability": "nonpayable",
      "type": "function"
    },
    {
      "inputs": [
        {
          "internalType": "uint256",
          "name": "tokenId",
          "type": "uint256"
        }
      ],
      "name": "tokenURI",
      "outputs": [
        {
          "internalType": "string",
          "name": "",
          "type": "string"
        }
      ],
      "stateMutability": "view",
      "type": "function",
      "constant": true
    }
  ],
  "bytecode": "0x60806040523480156200001157600080fd5b5060405162001eac38038062001eac8339810160408190526200003491620001bf565b8151829082906200004d9060009060208501906200006e565b508051620000639060019060208401906200006e565b505050505062000279565b8280546200007c9062000226565b90600052602060002090601f016020900481019282620000a05760008555620000eb565b82601f10620000bb57805160ff1916838001178555620000eb565b82800160010185558215620000eb579182015b82811115620000eb578251825591602001919060010190620000ce565b50620000f9929150620000fd565b5090565b5b80821115620000f95760008155600101620000fe565b600082601f83011262000125578081fd5b81516001600160401b038082111562000142576200014262000263565b6040516020601f8401601f19168201810183811183821017156200016a576200016a62000263565b604052838252858401810187101562000181578485fd5b8492505b83831015620001a4578583018101518284018201529182019162000185565b83831115620001b557848185840101525b5095945050505050565b60008060408385031215620001d2578182fd5b82516001600160401b0380821115620001e9578384fd5b620001f78683870162000114565b935060208501519150808211156200020d578283fd5b506200021c8582860162000114565b9150509250929050565b6002810460018216806200023b57607f821691505b602082108114156200025d57634e487b7160e01b600052602260045260246000fd5b50919050565b634e487b7160e01b600052604160045260246000fd5b611c2380620002896000396000f3fe608060405234801561001057600080fd5b506004361061010b5760003560e01c80634f6ccce7116100a2578063a22cb46511610071578063a22cb46514610212578063b88d4fde14610225578063c87b56dd14610238578063d0def5211461024b578063e985e9c51461025e5761010b565b80634f6ccce7146101d15780636352211e146101e457806370a08231146101f757806395d89b411461020a5761010b565b806318160ddd116100de57806318160ddd1461018357806323b872dd146101985780632f745c59146101ab57806342842e0e146101be5761010b565b806301ffc9a71461011057806306fdde0314610139578063081812fc1461014e578063095ea7b31461016e575b600080fd5b61012361011e366004611492565b610271565b604051610130919061158e565b60405180910390f35b61014161029e565b6040516101309190611599565b61016161015c3660046114ca565b610330565b604051610130919061153d565b61018161017c366004611469565b61037c565b005b61018b610414565b6040516101309190611ab3565b6101816101a636600461131c565b61041a565b61018b6101b9366004611469565b610452565b6101816101cc36600461131c565b6104a4565b61018b6101df3660046114ca565b6104bf565b6101616101f23660046114ca565b61051a565b61018b6102053660046112d0565b61054f565b610141610593565b6101816102203660046113d0565b6105a2565b610181610233366004611357565b610670565b6101416102463660046114ca565b6106af565b61018b61025936600461140a565b6107b4565b61012361026c3660046112ea565b6107e9565b60006001600160e01b0319821663780e9d6360e01b1480610296575061029682610817565b90505b919050565b6060600080546102ad90611b2b565b80601f01602080910402602001604051908101604052809291908181526020018280546102d990611b2b565b80156103265780601f106102fb57610100808354040283529160200191610326565b820191906000526020600020905b81548152906001019060200180831161030957829003601f168201915b5050505050905090565b600061033b82610857565b6103605760405162461bcd60e51b8152600401610357906118ba565b60405180910390fd5b506000908152600460205260409020546001600160a01b031690565b60006103878261051a565b9050806001600160a01b0316836001600160a01b031614156103bb5760405162461bcd60e51b8152600401610357906119d5565b806001600160a01b03166103cd610874565b6001600160a01b031614806103e957506103e98161026c610874565b6104055760405162461bcd60e51b815260040161035790611747565b61040f8383610878565b505050565b60085490565b61042b610425610874565b826108e6565b6104475760405162461bcd60e51b815260040161035790611a16565b61040f838383610963565b600061045d8361054f565b821061047b5760405162461bcd60e51b8152600401610357906115ac565b506001600160a01b03919091166000908152600660209081526040808320938352929052205490565b61040f83838360405180602001604052806000815250610670565b60006104c9610414565b82106104e75760405162461bcd60e51b815260040161035790611a67565b6008828154811061050857634e487b7160e01b600052603260045260246000fd5b90600052602060002001549050919050565b6000818152600260205260408120546001600160a01b0316806102965760405162461bcd60e51b8152600401610357906117ee565b60006001600160a01b0382166105775760405162461bcd60e51b8152600401610357906117a4565b506001600160a01b031660009081526003602052604090205490565b6060600180546102ad90611b2b565b6105aa610874565b6001600160a01b0316826001600160a01b031614156105db5760405162461bcd60e51b8152600401610357906116c4565b80600560006105e8610874565b6001600160a01b03908116825260208083019390935260409182016000908120918716808252919093529120805460ff19169215159290921790915561062c610874565b6001600160a01b03167f17307eab39ab6107e8899845ad3d59bd9653f200f220920489ca2b5937696c3183604051610664919061158e565b60405180910390a35050565b61068161067b610874565b836108e6565b61069d5760405162461bcd60e51b815260040161035790611a16565b6106a984848484610a90565b50505050565b60606106ba82610ac3565b6000828152600b6020526040812080546106d390611b2b565b80601f01602080910402602001604051908101604052809291908181526020018280546106ff90611b2b565b801561074c5780601f106107215761010080835404028352916020019161074c565b820191906000526020600020905b81548152906001019060200180831161072f57829003601f168201915b50505050509050600061075d610aeb565b905080516000141561077157509050610299565b8151156107a357808260405160200161078b92919061150e565b60405160208183030381529060405292505050610299565b6107ac84610b22565b949350505050565b60006107c0600a610ba4565b60006107cc600a610bad565b90506107d88482610bb1565b6107e28184610c90565b9392505050565b6001600160a01b03918216600090815260056020908152604080832093909416825291909152205460ff1690565b60006001600160e01b031982166380ac58cd60e01b148061084857506001600160e01b03198216635b5e139f60e01b145b80610296575061029682610cd4565b6000908152600260205260409020546001600160a01b0316151590565b3390565b600081815260046020526040902080546001600160a01b0319166001600160a01b03841690811790915581906108ad8261051a565b6001600160a01b03167f8c5be1e5ebec7d5bd14f71427d1e84f3dd0314c0f7b2291e5b200ac8c7c3b92560405160405180910390a45050565b60006108f182610857565b61090d5760405162461bcd60e51b8152600401610357906116fb565b60006109188361051a565b9050806001600160a01b0316846001600160a01b031614806109535750836001600160a01b031661094884610330565b6001600160a01b0316145b806107ac57506107ac81856107e9565b826001600160a01b03166109768261051a565b6001600160a01b03161461099c5760405162461bcd60e51b815260040161035790611906565b6001600160a01b0382166109c25760405162461bcd60e51b815260040161035790611680565b6109cd838383610ced565b6109d8600082610878565b6001600160a01b0383166000908152600360205260408120805460019290610a01908490611ae8565b90915550506001600160a01b0382166000908152600360205260408120805460019290610a2f908490611abc565b909155505060008181526002602052604080822080546001600160a01b0319166001600160a01b0386811691821790925591518493918716917fddf252ad1be2c89b69c2b068fc378daa952ba7f163c4a11628f55a4df523b3ef91a4505050565b610a9b848484610963565b610aa784848484610d76565b6106a95760405162461bcd60e51b8152600401610357906115f7565b610acc81610857565b610ae85760405162461bcd60e51b81526004016103579061199e565b50565b60408051808201909152601b81527f68747470733a2f2f697066732e656c612e636974792f697066732f0000000000602082015290565b6060610b2d82610857565b610b495760405162461bcd60e51b81526004016103579061194f565b6000610b53610aeb565b90506000815111610b7357604051806020016040528060008152506107e2565b80610b7d84610e91565b604051602001610b8e92919061150e565b6040516020818303038152906040529392505050565b80546001019055565b5490565b6001600160a01b038216610bd75760405162461bcd60e51b815260040161035790611885565b610be081610857565b15610bfd5760405162461bcd60e51b815260040161035790611649565b610c0960008383610ced565b6001600160a01b0382166000908152600360205260408120805460019290610c32908490611abc565b909155505060008181526002602052604080822080546001600160a01b0319166001600160a01b03861690811790915590518392907fddf252ad1be2c89b69c2b068fc378daa952ba7f163c4a11628f55a4df523b3ef908290a45050565b610c9982610857565b610cb55760405162461bcd60e51b815260040161035790611837565b6000828152600b60209081526040909120825161040f928401906111b0565b6001600160e01b031981166301ffc9a760e01b14919050565b610cf883838361040f565b6001600160a01b038316610d1457610d0f81610fac565b610d37565b816001600160a01b0316836001600160a01b031614610d3757610d378382610ff0565b6001600160a01b038216610d5357610d4e8161108d565b61040f565b826001600160a01b0316826001600160a01b03161461040f5761040f8282611166565b6000610d8a846001600160a01b03166111aa565b15610e8657836001600160a01b031663150b7a02610da6610874565b8786866040518563ffffffff1660e01b8152600401610dc89493929190611551565b602060405180830381600087803b158015610de257600080fd5b505af1925050508015610e12575060408051601f3d908101601f19168201909252610e0f918101906114ae565b60015b610e6c573d808015610e40576040519150601f19603f3d011682016040523d82523d6000602084013e610e45565b606091505b508051610e645760405162461bcd60e51b8152600401610357906115f7565b805181602001fd5b6001600160e01b031916630a85bd0160e11b1490506107ac565b506001949350505050565b606081610eb657506040805180820190915260018152600360fc1b6020820152610299565b8160005b8115610ee05780610eca81611b66565b9150610ed99050600a83611ad4565b9150610eba565b60008167ffffffffffffffff811115610f0957634e487b7160e01b600052604160045260246000fd5b6040519080825280601f01601f191660200182016040528015610f33576020820181803683370190505b5090505b84156107ac57610f48600183611ae8565b9150610f55600a86611b81565b610f60906030611abc565b60f81b818381518110610f8357634e487b7160e01b600052603260045260246000fd5b60200101906001600160f81b031916908160001a905350610fa5600a86611ad4565b9450610f37565b600880546000838152600960205260408120829055600182018355919091527ff3f7a9fe364faab93b216da50a3214154f22a0a2b415b23a84c8169e8b636ee30155565b60006001610ffd8461054f565b6110079190611ae8565b60008381526007602052604090205490915080821461105a576001600160a01b03841660009081526006602090815260408083208584528252808320548484528184208190558352600790915290208190555b5060009182526007602090815260408084208490556001600160a01b039094168352600681528383209183525290812055565b60085460009061109f90600190611ae8565b600083815260096020526040812054600880549394509092849081106110d557634e487b7160e01b600052603260045260246000fd5b90600052602060002001549050806008838154811061110457634e487b7160e01b600052603260045260246000fd5b600091825260208083209091019290925582815260099091526040808220849055858252812055600880548061114a57634e487b7160e01b600052603160045260246000fd5b6001900381819060005260206000200160009055905550505050565b60006111718361054f565b6001600160a01b039093166000908152600660209081526040808320868452825280832085905593825260079052919091209190915550565b3b151590565b8280546111bc90611b2b565b90600052602060002090601f0160209004810192826111de5760008555611224565b82601f106111f757805160ff1916838001178555611224565b82800160010185558215611224579182015b82811115611224578251825591602001919060010190611209565b50611230929150611234565b5090565b5b808211156112305760008155600101611235565b600067ffffffffffffffff8084111561126457611264611bc1565b604051601f8501601f19168101602001828111828210171561128857611288611bc1565b6040528481529150818385018610156112a057600080fd5b8484602083013760006020868301015250509392505050565b80356001600160a01b038116811461029957600080fd5b6000602082840312156112e1578081fd5b6107e2826112b9565b600080604083850312156112fc578081fd5b611305836112b9565b9150611313602084016112b9565b90509250929050565b600080600060608486031215611330578081fd5b611339846112b9565b9250611347602085016112b9565b9150604084013590509250925092565b6000806000806080858703121561136c578081fd5b611375856112b9565b9350611383602086016112b9565b925060408501359150606085013567ffffffffffffffff8111156113a5578182fd5b8501601f810187136113b5578182fd5b6113c487823560208401611249565b91505092959194509250565b600080604083850312156113e2578182fd5b6113eb836112b9565b9150602083013580151581146113ff578182fd5b809150509250929050565b6000806040838503121561141c578182fd5b611425836112b9565b9150602083013567ffffffffffffffff811115611440578182fd5b8301601f81018513611450578182fd5b61145f85823560208401611249565b9150509250929050565b6000806040838503121561147b578182fd5b611484836112b9565b946020939093013593505050565b6000602082840312156114a3578081fd5b81356107e281611bd7565b6000602082840312156114bf578081fd5b81516107e281611bd7565b6000602082840312156114db578081fd5b5035919050565b600081518084526114fa816020860160208601611aff565b601f01601f19169290920160200192915050565b60008351611520818460208801611aff565b835190830190611534818360208801611aff565b01949350505050565b6001600160a01b0391909116815260200190565b6001600160a01b0385811682528416602082015260408101839052608060608201819052600090611584908301846114e2565b9695505050505050565b901515815260200190565b6000602082526107e260208301846114e2565b6020808252602b908201527f455243373231456e756d657261626c653a206f776e657220696e646578206f7560408201526a74206f6620626f756e647360a81b606082015260800190565b60208082526032908201527f4552433732313a207472616e7366657220746f206e6f6e20455243373231526560408201527131b2b4bb32b91034b6b83632b6b2b73a32b960711b606082015260800190565b6020808252601c908201527f4552433732313a20746f6b656e20616c7265616479206d696e74656400000000604082015260600190565b60208082526024908201527f4552433732313a207472616e7366657220746f20746865207a65726f206164646040820152637265737360e01b606082015260800190565b60208082526019908201527f4552433732313a20617070726f766520746f2063616c6c657200000000000000604082015260600190565b6020808252602c908201527f4552433732313a206f70657261746f7220717565727920666f72206e6f6e657860408201526b34b9ba32b73a103a37b5b2b760a11b606082015260800190565b60208082526038908201527f4552433732313a20617070726f76652063616c6c6572206973206e6f74206f7760408201527f6e6572206e6f7220617070726f76656420666f7220616c6c0000000000000000606082015260800190565b6020808252602a908201527f4552433732313a2062616c616e636520717565727920666f7220746865207a65604082015269726f206164647265737360b01b606082015260800190565b60208082526029908201527f4552433732313a206f776e657220717565727920666f72206e6f6e657869737460408201526832b73a103a37b5b2b760b91b606082015260800190565b6020808252602e908201527f45524337323155524953746f726167653a2055524920736574206f66206e6f6e60408201526d32bc34b9ba32b73a103a37b5b2b760911b606082015260800190565b6020808252818101527f4552433732313a206d696e7420746f20746865207a65726f2061646472657373604082015260600190565b6020808252602c908201527f4552433732313a20617070726f76656420717565727920666f72206e6f6e657860408201526b34b9ba32b73a103a37b5b2b760a11b606082015260800190565b60208082526029908201527f4552433732313a207472616e73666572206f6620746f6b656e2074686174206960408201526839903737ba1037bbb760b91b606082015260800190565b6020808252602f908201527f4552433732314d657461646174613a2055524920717565727920666f72206e6f60408201526e3732bc34b9ba32b73a103a37b5b2b760891b606082015260800190565b60208082526018908201527f4552433732313a20696e76616c696420746f6b656e2049440000000000000000604082015260600190565b60208082526021908201527f4552433732313a20617070726f76616c20746f2063757272656e74206f776e656040820152603960f91b606082015260800190565b60208082526031908201527f4552433732313a207472616e736665722063616c6c6572206973206e6f74206f6040820152701ddb995c881b9bdc88185c1c1c9bdd9959607a1b606082015260800190565b6020808252602c908201527f455243373231456e756d657261626c653a20676c6f62616c20696e646578206f60408201526b7574206f6620626f756e647360a01b606082015260800190565b90815260200190565b60008219821115611acf57611acf611b95565b500190565b600082611ae357611ae3611bab565b500490565b600082821015611afa57611afa611b95565b500390565b60005b83811015611b1a578181015183820152602001611b02565b838111156106a95750506000910152565b600281046001821680611b3f57607f821691505b60208210811415611b6057634e487b7160e01b600052602260045260246000fd5b50919050565b6000600019821415611b7a57611b7a611b95565b5060010190565b600082611b9057611b90611bab565b500690565b634e487b7160e01b600052601160045260246000fd5b634e487b7160e01b600052601260045260246000fd5b634e487b7160e01b600052604160045260246000fd5b6001600160e01b031981168114610ae857600080fdfea26469706673582212204a2d3eb1ec365ace6ee1fd872b430405879e5d48909121ecddf206ca43baf9ce64736f6c63430008000033",
  "immutableReferences": {},
  "source": "// SPDX-License-Identifier: MIT\npragma solidity ^0.8.0;\n\nimport \"@openzeppelin/contracts/token/ERC721/extensions/ERC721Enumerable.sol\";\nimport \"@openzeppelin/contracts/utils/Counters.sol\";\n\ncontract MediaToken is ERC721Enumerable {\n    using Counters for Counters.Counter;\n    Counters.Counter private _tokenIds;\n\n    mapping(uint256 => string) private _tokenURIs;\n\n    constructor(string memory name, string memory symbol)\n        ERC721(name, symbol)\n    {}\n\n    function _requireMinted(uint256 tokenId) internal view virtual {\n        require(_exists(tokenId), \"ERC721: invalid token ID\");\n    }\n\n    function mint(address receiver, string memory _tokenURI)\n        public\n        returns (uint256)\n    {\n        _tokenIds.increment();\n\n        uint256 newTokenId = _tokenIds.current();\n        _mint(receiver, newTokenId);\n        _setTokenURI(newTokenId, _tokenURI);\n\n        return newTokenId;\n    }\n\n    function _setTokenURI(uint256 tokenId, string memory _tokenURI)\n        internal\n        virtual\n    {\n        require(\n            _exists(tokenId),\n            \"ERC721URIStorage: URI set of nonexistent token\"\n        );\n        _tokenURIs[tokenId] = _tokenURI;\n    }\n\n    /**\n     * @dev See {IERC721Metadata-tokenURI}.\n     */\n    function tokenURI(uint256 tokenId)\n        public\n        view\n        virtual\n        override\n        returns (string memory)\n    {\n        _requireMinted(tokenId);\n\n        string memory _tokenURI = _tokenURIs[tokenId];\n        string memory base = _baseURI();\n\n        // If there is no base URI, return the token URI.\n        if (bytes(base).length == 0) {\n            return _tokenURI;\n        }\n        // If both are set, concatenate the baseURI and tokenURI (via abi.encodePacked).\n        if (bytes(_tokenURI).length > 0) {\n            return string(abi.encodePacked(base, _tokenURI));\n        }\n\n        return super.tokenURI(tokenId);\n    }\n\n    function _baseURI() internal view virtual override returns (string memory) {\n        return \"https://ipfs.ela.city/ipfs/\";\n    }\n\n    function _burn(uint256 tokenId) internal virtual override {\n        super._burn(tokenId);\n\n        if (bytes(_tokenURIs[tokenId]).length != 0) {\n            delete _tokenURIs[tokenId];\n        }\n    }\n}\n",
  "sourcePath": "/home/irzhy/www/ela.city/dlt-scm/contracts/MediaToken.sol",
  "compiler": {
    "name": "solc",
    "version": "0.8.0+commit.c7dfd78e.Emscripten.clang"
  },
  "schemaVersion": "3.4.3",
  "updatedAt": "2022-08-22T11:09:41.248Z",
  "networkType": "ethereum",
  "devdoc": {
    "kind": "dev",
    "methods": {
      "approve(address,uint256)": {
        "details": "See {IERC721-approve}."
      },
      "balanceOf(address)": {
        "details": "See {IERC721-balanceOf}."
      },
      "getApproved(uint256)": {
        "details": "See {IERC721-getApproved}."
      },
      "isApprovedForAll(address,address)": {
        "details": "See {IERC721-isApprovedForAll}."
      },
      "name()": {
        "details": "See {IERC721Metadata-name}."
      },
      "ownerOf(uint256)": {
        "details": "See {IERC721-ownerOf}."
      },
      "safeTransferFrom(address,address,uint256)": {
        "details": "See {IERC721-safeTransferFrom}."
      },
      "safeTransferFrom(address,address,uint256,bytes)": {
        "details": "See {IERC721-safeTransferFrom}."
      },
      "setApprovalForAll(address,bool)": {
        "details": "See {IERC721-setApprovalForAll}."
      },
      "supportsInterface(bytes4)": {
        "details": "See {IERC165-supportsInterface}."
      },
      "symbol()": {
        "details": "See {IERC721Metadata-symbol}."
      },
      "tokenByIndex(uint256)": {
        "details": "See {IERC721Enumerable-tokenByIndex}."
      },
      "tokenOfOwnerByIndex(address,uint256)": {
        "details": "See {IERC721Enumerable-tokenOfOwnerByIndex}."
      },
      "tokenURI(uint256)": {
        "details": "See {IERC721Metadata-tokenURI}."
      },
      "totalSupply()": {
        "details": "See {IERC721Enumerable-totalSupply}."
      },
      "transferFrom(address,address,uint256)": {
        "details": "See {IERC721-transferFrom}."
      }
    },
    "version": 1
  },
  "userdoc": {
    "kind": "user",
    "methods": {},
    "version": 1
  }
}