{
  "contractName": "NFToken",
  "abi": [
    {
      "inputs": [
        {
          "internalType": "string",
          "name": "name",
          "type": "string"
        },
        {
          "internalType": "string",
          "name": "symbol",
          "type": "string"
        }
      ],
      "stateMutability": "nonpayable",
      "type": "constructor"
    },
    {
      "anonymous": false,
      "inputs": [
        {
          "indexed": true,
          "internalType": "address",
          "name": "owner",
          "type": "address"
        },
        {
          "indexed": true,
          "internalType": "address",
          "name": "approved",
          "type": "address"
        },
        {
          "indexed": true,
          "internalType": "uint256",
          "name": "tokenId",
          "type": "uint256"
        }
      ],
      "name": "Approval",
      "type": "event"
    },
    {
      "anonymous": false,
      "inputs": [
        {
          "indexed": true,
          "internalType": "address",
          "name": "owner",
          "type": "address"
        },
        {
          "indexed": true,
          "internalType": "address",
          "name": "operator",
          "type": "address"
        },
        {
          "indexed": false,
          "internalType": "bool",
          "name": "approved",
          "type": "bool"
        }
      ],
      "name": "ApprovalForAll",
      "type": "event"
    },
    {
      "anonymous": false,
      "inputs": [
        {
          "indexed": true,
          "internalType": "address",
          "name": "from",
          "type": "address"
        },
        {
          "indexed": true,
          "internalType": "address",
          "name": "to",
          "type": "address"
        },
        {
          "indexed": true,
          "internalType": "uint256",
          "name": "tokenId",
          "type": "uint256"
        }
      ],
      "name": "Transfer",
      "type": "event"
    },
    {
      "inputs": [
        {
          "internalType": "address",
          "name": "to",
          "type": "address"
        },
        {
          "internalType": "uint256",
          "name": "tokenId",
          "type": "uint256"
        }
      ],
      "name": "approve",
      "outputs": [],
      "stateMutability": "nonpayable",
      "type": "function"
    },
    {
      "inputs": [
        {
          "internalType": "address",
          "name": "owner",
          "type": "address"
        }
      ],
      "name": "balanceOf",
      "outputs": [
        {
          "internalType": "uint256",
          "name": "",
          "type": "uint256"
        }
      ],
      "stateMutability": "view",
      "type": "function",
      "constant": true
    },
    {
      "inputs": [
        {
          "internalType": "uint256",
          "name": "tokenId",
          "type": "uint256"
        }
      ],
      "name": "getApproved",
      "outputs": [
        {
          "internalType": "address",
          "name": "",
          "type": "address"
        }
      ],
      "stateMutability": "view",
      "type": "function",
      "constant": true
    },
    {
      "inputs": [
        {
          "internalType": "address",
          "name": "owner",
          "type": "address"
        },
        {
          "internalType": "address",
          "name": "operator",
          "type": "address"
        }
      ],
      "name": "isApprovedForAll",
      "outputs": [
        {
          "internalType": "bool",
          "name": "",
          "type": "bool"
        }
      ],
      "stateMutability": "view",
      "type": "function",
      "constant": true
    },
    {
      "inputs": [],
      "name": "name",
      "outputs": [
        {
          "internalType": "string",
          "name": "",
          "type": "string"
        }
      ],
      "stateMutability": "view",
      "type": "function",
      "constant": true
    },
    {
      "inputs": [
        {
          "internalType": "uint256",
          "name": "tokenId",
          "type": "uint256"
        }
      ],
      "name": "ownerOf",
      "outputs": [
        {
          "internalType": "address",
          "name": "",
          "type": "address"
        }
      ],
      "stateMutability": "view",
      "type": "function",
      "constant": true
    },
    {
      "inputs": [
        {
          "internalType": "address",
          "name": "from",
          "type": "address"
        },
        {
          "internalType": "address",
          "name": "to",
          "type": "address"
        },
        {
          "internalType": "uint256",
          "name": "tokenId",
          "type": "uint256"
        }
      ],
      "name": "safeTransferFrom",
      "outputs": [],
      "stateMutability": "nonpayable",
      "type": "function"
    },
    {
      "inputs": [
        {
          "internalType": "address",
          "name": "from",
          "type": "address"
        },
        {
          "internalType": "address",
          "name": "to",
          "type": "address"
        },
        {
          "internalType": "uint256",
          "name": "tokenId",
          "type": "uint256"
        },
        {
          "internalType": "bytes",
          "name": "_data",
          "type": "bytes"
        }
      ],
      "name": "safeTransferFrom",
      "outputs": [],
      "stateMutability": "nonpayable",
      "type": "function"
    },
    {
      "inputs": [
        {
          "internalType": "address",
          "name": "operator",
          "type": "address"
        },
        {
          "internalType": "bool",
          "name": "approved",
          "type": "bool"
        }
      ],
      "name": "setApprovalForAll",
      "outputs": [],
      "stateMutability": "nonpayable",
      "type": "function"
    },
    {
      "inputs": [
        {
          "internalType": "bytes4",
          "name": "interfaceId",
          "type": "bytes4"
        }
      ],
      "name": "supportsInterface",
      "outputs": [
        {
          "internalType": "bool",
          "name": "",
          "type": "bool"
        }
      ],
      "stateMutability": "view",
      "type": "function",
      "constant": true
    },
    {
      "inputs": [],
      "name": "symbol",
      "outputs": [
        {
          "internalType": "string",
          "name": "",
          "type": "string"
        }
      ],
      "stateMutability": "view",
      "type": "function",
      "constant": true
    },
    {
      "inputs": [
        {
          "internalType": "uint256",
          "name": "tokenId",
          "type": "uint256"
        }
      ],
      "name": "tokenURI",
      "outputs": [
        {
          "internalType": "string",
          "name": "",
          "type": "string"
        }
      ],
      "stateMutability": "view",
      "type": "function",
      "constant": true
    },
    {
      "inputs": [
        {
          "internalType": "address",
          "name": "from",
          "type": "address"
        },
        {
          "internalType": "address",
          "name": "to",
          "type": "address"
        },
        {
          "internalType": "uint256",
          "name": "tokenId",
          "type": "uint256"
        }
      ],
      "name": "transferFrom",
      "outputs": [],
      "stateMutability": "nonpayable",
      "type": "function"
    },
    {
      "inputs": [
        {
          "internalType": "address",
          "name": "receiver",
          "type": "address"
        },
        {
          "internalType": "string",
          "name": "tokenURI",
          "type": "string"
        }
      ],
      "name": "newToken",
      "outputs": [
        {
          "internalType": "uint256",
          "name": "",
          "type": "uint256"
        }
      ],
      "stateMutability": "nonpayable",
      "type": "function"
    }
  ],
  "bytecode": "0x60806040523480156200001157600080fd5b5060405162001a5338038062001a538339810160408190526200003491620001bf565b8151829082906200004d9060009060208501906200006e565b508051620000639060019060208401906200006e565b505050505062000279565b8280546200007c9062000226565b90600052602060002090601f016020900481019282620000a05760008555620000eb565b82601f10620000bb57805160ff1916838001178555620000eb565b82800160010185558215620000eb579182015b82811115620000eb578251825591602001919060010190620000ce565b50620000f9929150620000fd565b5090565b5b80821115620000f95760008155600101620000fe565b600082601f83011262000125578081fd5b81516001600160401b038082111562000142576200014262000263565b6040516020601f8401601f19168201810183811183821017156200016a576200016a62000263565b604052838252858401810187101562000181578485fd5b8492505b83831015620001a4578583018101518284018201529182019162000185565b83831115620001b557848185840101525b5095945050505050565b60008060408385031215620001d2578182fd5b82516001600160401b0380821115620001e9578384fd5b620001f78683870162000114565b935060208501519150808211156200020d578283fd5b506200021c8582860162000114565b9150509250929050565b6002810460018216806200023b57607f821691505b602082108114156200025d57634e487b7160e01b600052602260045260246000fd5b50919050565b634e487b7160e01b600052604160045260246000fd5b6117ca80620002896000396000f3fe608060405234801561001057600080fd5b50600436106100ea5760003560e01c80636352211e1161008c578063a22cb46511610066578063a22cb465146101d6578063b88d4fde146101e9578063c87b56dd146101fc578063e985e9c51461020f576100ea565b80636352211e146101a857806370a08231146101bb57806395d89b41146101ce576100ea565b8063095ea7b3116100c8578063095ea7b31461014d57806323b872dd1461016257806342842e0e14610175578063526f332214610188576100ea565b806301ffc9a7146100ef57806306fdde0314610118578063081812fc1461012d575b600080fd5b6101026100fd3660046110b3565b610222565b60405161010f91906111af565b60405180910390f35b61012061026a565b60405161010f91906111ba565b61014061013b3660046110eb565b6102fc565b60405161010f919061115e565b61016061015b36600461108a565b610348565b005b610160610170366004610f3d565b6103e0565b610160610183366004610f3d565b610418565b61019b61019636600461102b565b610433565b60405161010f9190611657565b6101406101b63660046110eb565b610468565b61019b6101c9366004610ef1565b61049d565b6101206104e1565b6101606101e4366004610ff1565b6104f0565b6101606101f7366004610f78565b6105be565b61012061020a3660046110eb565b6105fd565b61010261021d366004610f0b565b61071e565b60006001600160e01b031982166380ac58cd60e01b148061025357506001600160e01b03198216635b5e139f60e01b145b8061026257506102628261074c565b90505b919050565b606060008054610279906116cf565b80601f01602080910402602001604051908101604052809291908181526020018280546102a5906116cf565b80156102f25780601f106102c7576101008083540402835291602001916102f2565b820191906000526020600020905b8154815290600101906020018083116102d557829003601f168201915b5050505050905090565b600061030782610765565b61032c5760405162461bcd60e51b8152600401610323906114e1565b60405180910390fd5b506000908152600460205260409020546001600160a01b031690565b600061035382610468565b9050806001600160a01b0316836001600160a01b031614156103875760405162461bcd60e51b8152600401610323906115c5565b806001600160a01b0316610399610782565b6001600160a01b031614806103b557506103b58161021d610782565b6103d15760405162461bcd60e51b81526004016103239061131d565b6103db8383610786565b505050565b6103f16103eb610782565b826107f4565b61040d5760405162461bcd60e51b815260040161032390611606565b6103db838383610871565b6103db838383604051806020016040528060008152506105be565b600061043f600761099e565b600061044b60076109a7565b905061045784826109ab565b6104618184610a8a565b9392505050565b6000818152600260205260408120546001600160a01b0316806102625760405162461bcd60e51b8152600401610323906113c4565b60006001600160a01b0382166104c55760405162461bcd60e51b81526004016103239061137a565b506001600160a01b031660009081526003602052604090205490565b606060018054610279906116cf565b6104f8610782565b6001600160a01b0316826001600160a01b031614156105295760405162461bcd60e51b81526004016103239061129a565b8060056000610536610782565b6001600160a01b03908116825260208083019390935260409182016000908120918716808252919093529120805460ff19169215159290921790915561057a610782565b6001600160a01b03167f17307eab39ab6107e8899845ad3d59bd9653f200f220920489ca2b5937696c31836040516105b291906111af565b60405180910390a35050565b6105cf6105c9610782565b836107f4565b6105eb5760405162461bcd60e51b815260040161032390611606565b6105f784848484610ace565b50505050565b606061060882610765565b6106245760405162461bcd60e51b815260040161032390611490565b6000828152600660205260408120805461063d906116cf565b80601f0160208091040260200160405190810160405280929190818152602001828054610669906116cf565b80156106b65780601f1061068b576101008083540402835291602001916106b6565b820191906000526020600020905b81548152906001019060200180831161069957829003601f168201915b5050505050905060006106c7610b01565b90508051600014156106db57509050610265565b81511561070d5780826040516020016106f592919061112f565b60405160208183030381529060405292505050610265565b61071684610b13565b949350505050565b6001600160a01b03918216600090815260056020908152604080832093909416825291909152205460ff1690565b6001600160e01b031981166301ffc9a760e01b14919050565b6000908152600260205260409020546001600160a01b0316151590565b3390565b600081815260046020526040902080546001600160a01b0319166001600160a01b03841690811790915581906107bb82610468565b6001600160a01b03167f8c5be1e5ebec7d5bd14f71427d1e84f3dd0314c0f7b2291e5b200ac8c7c3b92560405160405180910390a45050565b60006107ff82610765565b61081b5760405162461bcd60e51b8152600401610323906112d1565b600061082683610468565b9050806001600160a01b0316846001600160a01b031614806108615750836001600160a01b0316610856846102fc565b6001600160a01b0316145b806107165750610716818561071e565b826001600160a01b031661088482610468565b6001600160a01b0316146108aa5760405162461bcd60e51b81526004016103239061152d565b6001600160a01b0382166108d05760405162461bcd60e51b815260040161032390611256565b6108db8383836103db565b6108e6600082610786565b6001600160a01b038316600090815260036020526040812080546001929061090f90849061168c565b90915550506001600160a01b038216600090815260036020526040812080546001929061093d908490611660565b909155505060008181526002602052604080822080546001600160a01b0319166001600160a01b0386811691821790925591518493918716917fddf252ad1be2c89b69c2b068fc378daa952ba7f163c4a11628f55a4df523b3ef91a4505050565b80546001019055565b5490565b6001600160a01b0382166109d15760405162461bcd60e51b81526004016103239061145b565b6109da81610765565b156109f75760405162461bcd60e51b81526004016103239061121f565b610a03600083836103db565b6001600160a01b0382166000908152600360205260408120805460019290610a2c908490611660565b909155505060008181526002602052604080822080546001600160a01b0319166001600160a01b03861690811790915590518392907fddf252ad1be2c89b69c2b068fc378daa952ba7f163c4a11628f55a4df523b3ef908290a45050565b610a9382610765565b610aaf5760405162461bcd60e51b81526004016103239061140d565b600082815260066020908152604090912082516103db92840190610dd1565b610ad9848484610871565b610ae584848484610b95565b6105f75760405162461bcd60e51b8152600401610323906111cd565b60408051602081019091526000815290565b6060610b1e82610765565b610b3a5760405162461bcd60e51b815260040161032390611576565b6000610b44610b01565b90506000815111610b645760405180602001604052806000815250610461565b80610b6e84610cb0565b604051602001610b7f92919061112f565b6040516020818303038152906040529392505050565b6000610ba9846001600160a01b0316610dcb565b15610ca557836001600160a01b031663150b7a02610bc5610782565b8786866040518563ffffffff1660e01b8152600401610be79493929190611172565b602060405180830381600087803b158015610c0157600080fd5b505af1925050508015610c31575060408051601f3d908101601f19168201909252610c2e918101906110cf565b60015b610c8b573d808015610c5f576040519150601f19603f3d011682016040523d82523d6000602084013e610c64565b606091505b508051610c835760405162461bcd60e51b8152600401610323906111cd565b805181602001fd5b6001600160e01b031916630a85bd0160e11b149050610716565b506001949350505050565b606081610cd557506040805180820190915260018152600360fc1b6020820152610265565b8160005b8115610cff5780610ce98161170a565b9150610cf89050600a83611678565b9150610cd9565b60008167ffffffffffffffff811115610d2857634e487b7160e01b600052604160045260246000fd5b6040519080825280601f01601f191660200182016040528015610d52576020820181803683370190505b5090505b841561071657610d6760018361168c565b9150610d74600a86611725565b610d7f906030611660565b60f81b818381518110610da257634e487b7160e01b600052603260045260246000fd5b60200101906001600160f81b031916908160001a905350610dc4600a86611678565b9450610d56565b3b151590565b828054610ddd906116cf565b90600052602060002090601f016020900481019282610dff5760008555610e45565b82601f10610e1857805160ff1916838001178555610e45565b82800160010185558215610e45579182015b82811115610e45578251825591602001919060010190610e2a565b50610e51929150610e55565b5090565b5b80821115610e515760008155600101610e56565b600067ffffffffffffffff80841115610e8557610e85611765565b604051601f8501601f191681016020018281118282101715610ea957610ea9611765565b604052848152915081838501861015610ec157600080fd5b8484602083013760006020868301015250509392505050565b80356001600160a01b038116811461026557600080fd5b600060208284031215610f02578081fd5b61046182610eda565b60008060408385031215610f1d578081fd5b610f2683610eda565b9150610f3460208401610eda565b90509250929050565b600080600060608486031215610f51578081fd5b610f5a84610eda565b9250610f6860208501610eda565b9150604084013590509250925092565b60008060008060808587031215610f8d578081fd5b610f9685610eda565b9350610fa460208601610eda565b925060408501359150606085013567ffffffffffffffff811115610fc6578182fd5b8501601f81018713610fd6578182fd5b610fe587823560208401610e6a565b91505092959194509250565b60008060408385031215611003578182fd5b61100c83610eda565b915060208301358015158114611020578182fd5b809150509250929050565b6000806040838503121561103d578182fd5b61104683610eda565b9150602083013567ffffffffffffffff811115611061578182fd5b8301601f81018513611071578182fd5b61108085823560208401610e6a565b9150509250929050565b6000806040838503121561109c578182fd5b6110a583610eda565b946020939093013593505050565b6000602082840312156110c4578081fd5b81356104618161177b565b6000602082840312156110e0578081fd5b81516104618161177b565b6000602082840312156110fc578081fd5b5035919050565b6000815180845261111b8160208601602086016116a3565b601f01601f19169290920160200192915050565b600083516111418184602088016116a3565b8351908301906111558183602088016116a3565b01949350505050565b6001600160a01b0391909116815260200190565b6001600160a01b03858116825284166020820152604081018390526080606082018190526000906111a590830184611103565b9695505050505050565b901515815260200190565b6000602082526104616020830184611103565b60208082526032908201527f4552433732313a207472616e7366657220746f206e6f6e20455243373231526560408201527131b2b4bb32b91034b6b83632b6b2b73a32b960711b606082015260800190565b6020808252601c908201527f4552433732313a20746f6b656e20616c7265616479206d696e74656400000000604082015260600190565b60208082526024908201527f4552433732313a207472616e7366657220746f20746865207a65726f206164646040820152637265737360e01b606082015260800190565b60208082526019908201527f4552433732313a20617070726f766520746f2063616c6c657200000000000000604082015260600190565b6020808252602c908201527f4552433732313a206f70657261746f7220717565727920666f72206e6f6e657860408201526b34b9ba32b73a103a37b5b2b760a11b606082015260800190565b60208082526038908201527f4552433732313a20617070726f76652063616c6c6572206973206e6f74206f7760408201527f6e6572206e6f7220617070726f76656420666f7220616c6c0000000000000000606082015260800190565b6020808252602a908201527f4552433732313a2062616c616e636520717565727920666f7220746865207a65604082015269726f206164647265737360b01b606082015260800190565b60208082526029908201527f4552433732313a206f776e657220717565727920666f72206e6f6e657869737460408201526832b73a103a37b5b2b760b91b606082015260800190565b6020808252602e908201527f45524337323155524953746f726167653a2055524920736574206f66206e6f6e60408201526d32bc34b9ba32b73a103a37b5b2b760911b606082015260800190565b6020808252818101527f4552433732313a206d696e7420746f20746865207a65726f2061646472657373604082015260600190565b60208082526031908201527f45524337323155524953746f726167653a2055524920717565727920666f72206040820152703737b732bc34b9ba32b73a103a37b5b2b760791b606082015260800190565b6020808252602c908201527f4552433732313a20617070726f76656420717565727920666f72206e6f6e657860408201526b34b9ba32b73a103a37b5b2b760a11b606082015260800190565b60208082526029908201527f4552433732313a207472616e73666572206f6620746f6b656e2074686174206960408201526839903737ba1037bbb760b91b606082015260800190565b6020808252602f908201527f4552433732314d657461646174613a2055524920717565727920666f72206e6f60408201526e3732bc34b9ba32b73a103a37b5b2b760891b606082015260800190565b60208082526021908201527f4552433732313a20617070726f76616c20746f2063757272656e74206f776e656040820152603960f91b606082015260800190565b60208082526031908201527f4552433732313a207472616e736665722063616c6c6572206973206e6f74206f6040820152701ddb995c881b9bdc88185c1c1c9bdd9959607a1b606082015260800190565b90815260200190565b6000821982111561167357611673611739565b500190565b6000826116875761168761174f565b500490565b60008282101561169e5761169e611739565b500390565b60005b838110156116be5781810151838201526020016116a6565b838111156105f75750506000910152565b6002810460018216806116e357607f821691505b6020821081141561170457634e487b7160e01b600052602260045260246000fd5b50919050565b600060001982141561171e5761171e611739565b5060010190565b6000826117345761173461174f565b500690565b634e487b7160e01b600052601160045260246000fd5b634e487b7160e01b600052601260045260246000fd5b634e487b7160e01b600052604160045260246000fd5b6001600160e01b03198116811461179157600080fd5b5056fea2646970667358221220ea5b66047744a7c50c337362455c0ea6f0388f1814e06f13fcc9598d746d058464736f6c63430008000033",
  "immutableReferences": {},
  "source": "// SPDX-License-Identifier: MIT\npragma solidity ^0.8.0;\n\nimport \"@openzeppelin/contracts/token/ERC721/extensions/ERC721URIStorage.sol\";\nimport \"@openzeppelin/contracts/utils/Counters.sol\";\n\ncontract NFToken is ERC721URIStorage {\n    using Counters for Counters.Counter;\n\n    Counters.Counter private _tokenIds;\n\n    constructor(string memory name, string memory symbol)\n        ERC721(name, symbol)\n    {}\n\n    function newToken(address receiver, string memory tokenURI)\n        public\n        returns (uint256)\n    {\n        _tokenIds.increment();\n\n        uint256 newTokenId = _tokenIds.current();\n        _mint(receiver, newTokenId);\n        _setTokenURI(newTokenId, tokenURI);\n\n        return newTokenId;\n    }\n}\n",
  "sourcePath": "/home/irzhy/www/ela.city/dlt-scm/contracts/NFToken.sol",
  "compiler": {
    "name": "solc",
    "version": "0.8.0+commit.c7dfd78e.Emscripten.clang"
  },
  "schemaVersion": "3.4.3",
  "updatedAt": "2022-08-17T21:24:15.802Z",
  "networkType": "ethereum",
  "devdoc": {
    "kind": "dev",
    "methods": {
      "approve(address,uint256)": {
        "details": "See {IERC721-approve}."
      },
      "balanceOf(address)": {
        "details": "See {IERC721-balanceOf}."
      },
      "getApproved(uint256)": {
        "details": "See {IERC721-getApproved}."
      },
      "isApprovedForAll(address,address)": {
        "details": "See {IERC721-isApprovedForAll}."
      },
      "name()": {
        "details": "See {IERC721Metadata-name}."
      },
      "ownerOf(uint256)": {
        "details": "See {IERC721-ownerOf}."
      },
      "safeTransferFrom(address,address,uint256)": {
        "details": "See {IERC721-safeTransferFrom}."
      },
      "safeTransferFrom(address,address,uint256,bytes)": {
        "details": "See {IERC721-safeTransferFrom}."
      },
      "setApprovalForAll(address,bool)": {
        "details": "See {IERC721-setApprovalForAll}."
      },
      "supportsInterface(bytes4)": {
        "details": "See {IERC165-supportsInterface}."
      },
      "symbol()": {
        "details": "See {IERC721Metadata-symbol}."
      },
      "tokenURI(uint256)": {
        "details": "See {IERC721Metadata-tokenURI}."
      },
      "transferFrom(address,address,uint256)": {
        "details": "See {IERC721-transferFrom}."
      }
    },
    "version": 1
  },
  "userdoc": {
    "kind": "user",
    "methods": {},
    "version": 1
  }
}